:1000000000308A00272800000A108A100A1182078F
:100010003F3406345B344F3466346D347D340734FA
:100020007F34673424308400000803192628013007
:10003000F800F701F70B1A28F80B19284A30F700D7
:10004000F70B202800000000800B17286828840187
:100050001F30830507309F0007309F008316050877
:100060000330F700F70B322883121F080C132030DF
:100070006500003066008316811301308312A200F0
:100080002208043C031C6E28220B482808308500F7
:100090002208023C031D4E28043085002208033C40
:1000A000031D5428023085002208043C031D5A28F1
:1000B00001308500A1012108093C031C6C2821089E
:1000C0000420F80086000230A3009630A400122815
:1000D000A30B6528A10A5B28A20A402883163D28A5
:0200E0006300BB
:02400E00393F38
:00000001FF
;PIC16F628A
