:1000000000308A00C72800000A108A100A118207EF
:100010003F3406345B344F3466346D347D340734FA
:100020007F3467340A108A100A118207203464343E
:1000300045344C34413462342034203400340A10C6
:100040008A100A118207503449344334203444342E
:100050004534563445344C344F3450344D344534A3
:100060004E345434203400342818382806123928E5
:100070000616831606128312A818402886124128F5
:1000800086168316861283122819482806134928D3
:100090000617831606138312A819502886135128B1
:1000A00086178316861383120034283084000008D4
:1000B000031967280630F800F701F70B5D28F80BE5
:1000C0005C287B30F700F70B6328800B5A2800343C
:1000D00083168611831286150430F700F70B6E28FD
:1000E0000000000083168611831286110330A800D9
:1000F00055200034A40E2408A80034206820A40E43
:100100002408A800342068200034A8013420C83016
:10011000A800552083160611831206110330A8008B
:1001200034206820682068200230A800342068202D
:100130002C30A4007A200C30A4007A200130A400D6
:100140007A200630A4007A208A110A12DF28A40E31
:1001500024080838A500A80034206820A40E24082C
:10016000A800342068200034831606118312061577
:10017000A70E2708A80034206820A70E2708A8008B
:10018000342068208316061183120611003484017E
:100190001F30830583161F149F141F159F110730EE
:1001A0009C00FF308312A0001F10F03083168500E2
:1001B00000308600831285010130A10085280130BE
:1001C000A4007A20A401A7200430A4002A30A700AC
:1001D000B420A40BE628A50125081220A50AF700E3
:1001E000A700B42007302502031DEC280430A60028
:1001F0002A30A700B420A60BF8282030A700B4208E
:100200004030A400A720A40124081F20A40AF7005E
:10021000A700B42010302402031D04290130A300DC
:100220002308043C031C3A29230B182908308500B5
:100230002308023C031D1E29043085002308033CCB
:10024000031D2429023085002308043C031D2A29AC
:1002500001308500A2012208093C031C382922082C
:100260000420F8008600C830A8005520A20A2B29D7
:10027000A30A1029003083168500860087008312A8
:10028000A0008316880089008312A2012208093C7D
:10029000031C5D29FF3085008600870088008900E7
:1002A000C830A80055208501860187018801890191
:1002B000C830A8005520A20A46298316DA28630010
:02400E003A3F37
:00000001FF
;PIC16F877A
