:1000000000308A00982800000A108A100A1182071E
:100010005434753473343A342034523442342534F1
:1000200055340034201320088316870083120713E9
:100030000830F800000000000000F8172E28F81320
:10004000A60C03180717031C071378172E2878131C
:10005000F80B202800000000000007175030840033
:10006000840B3028F81B1F28781B2728003427080A
:10007000F801260203183F282608F7004B28F7014D
:100080000830A800A60DF70D270877020318F7001F
:10009000F80DA80B4228003478082408A600643024
:1000A000A70037207708A40078083030031D5F28A8
:1000B000A51C6628A5196628251A20306228A511D6
:1000C00025122514F8077808A60012202408A60097
:1000D0000A30A70037207708A40078083030031DC5
:1000E0007728A5197B28251C7B28251A2030F8079E
:1000F0007808A60012203030A4072408A600122099
:100100008A110A12E6282330840000080319952872
:100110000630F800F701F70B8B28F80B8A287B30A4
:10012000F700F70B9128800B88288A110A12F4280F
:1001300084011F30830583161F149F141F159F1100
:1001400007309C0083122013200883168700831237
:100150000717FF30A00083168113FF30831286003B
:100160000618B4280130A1008618B8280230A10072
:100170000619BC280330A1008619C0280430A1004C
:10018000061AC4280530A100861AC8280630A10026
:10019000061BCC280730A100861BD0280830A10000
:1001A000A1080319ED2801302102A200A3012308B0
:1001B0000420A30AF700A600122007302302031D23
:1001C000D7282208A4001B30A5004C280330A40027
:1001D0002030A6001220A40BE828A10186010230DD
:1001E000A200C830A3008328A20BF128B028630026
:02400E007A3FF7
:00000001FF
;PIC16F876A
