:1000000000308A00B42800000A108A100A11820702
:100010002034643445344C34413462342034003468
:100020000A108A100A1182075034493443342034AC
:1000300044344534563445344C344F3450344D34C4
:1000400045344E3454340034261828280612292802
:100050000616831606128312A61830288612312837
:100060008616831686128312261938280613392815
:100070000617831606138312A619402886134128F3
:1000800086178316861383120034263084000008F6
:10009000031959280130F800F701F70B4D28F80B28
:1000A0004C284A30F700F70B532800000000800B63
:1000B0004A2800348316861183128615000000003A
:1000C000000083168611831286110330A600452096
:1000D0000034A20E2208A60024205A20A20E2208D4
:1000E000A60024205A200034A6012420C830A600EF
:1000F000452083160611831206110330A600242022
:100100005A205A205A200230A60024205A202C308F
:10011000A20069200C30A20069200130A2006920F1
:100120000630A2006920C728A20E22080838A300C2
:10013000A60024205A20A20E2208A60024205A201D
:1001400000348316061183120615A50E2508A60095
:1001500024205A20A50E2508A60024205A20831604
:10016000061183120611003484011F308305073005
:100170009F000130A10007309F008316050803305F
:10018000F700F70BC12883121F080C1374280130E5
:10019000A2006920A20194200430A2002A30A50008
:1001A000A120A20BCE28A30123080420A30AF70054
:1001B000A500A12007302302031DD4280430A40089
:1001C0002A30A500A120A40BE0284030A2009420F2
:1001D000A20122081020A20AF700A500A1200F30DA
:0A01E0002202031DE928F328630042
:02400E00393F38
:00000001FF
;PIC16F628A
