:1000000000308A004E2800000A108A100A11820768
:100010003F3406345B344F3466346D347D340734FA
:100020007F3467346334F801F901F701FA012908D4
:10003000031D1D282808031937281030AA000310B3
:10004000A60DA70DF70DFA0D29087A02031D2A281F
:1000500028087702031C33282808F702031CFA0338
:100060002908FA020314F80DF90DAA0B1F28003411
:10007000263084008313000803194B280630F8004B
:10008000F701F70B4128F80B40287B30F700F70BFE
:100090004728800B3E288A110A12E4288401831322
:1000A0001F30830583161F149F141F159F110730DF
:1000B0009C00F0308500003086001F149F141F152F
:1000C0009F1183121F10A5010130A4002508273CB1
:1000D000031CEA28031D702824080E3C031CEA2890
:1000E0002508A3002408A2000130A1002108043C37
:1000F000031CE628210B9428083085002308A7005C
:100100002208A600A9010A30A80013207708A00041
:100110002308A7002208A600A9010A30A80013207E
:100120007908A3007808A2002108023C031DB0282A
:10013000043085002308A7002208A600A9010A3080
:10014000A80013207708A0002308A7002208A60013
:10015000A9010A30A80013207908A3007808A2009A
:100160002108033C031DCC28023085002308A7008A
:100170002208A600A9010A30A80013207708A000D1
:100180002308A7002208A600A9010A30A80013200E
:100190007908A3007808A2002108043C031DD42894
:1001A000013085002208A0002108033C031DDD2842
:1001B00020080420803A8600E12820080420F80066
:1001C00086000630A6003828A10A7628A40A03195A
:0801D000A50A662863286300FC
:02400E003A3F37
:00000001FF
;PIC16F877A
