:1000000000308A00EF2800002A152A1520324526E4
:10001000413120152A152A100000D0244310C42293
:10002000D622CC27D02645275410000028181A289D
:1000300006121B280616831606128312A8182228F9
:1000400086122328861683168612831228192A28D8
:1000500006132B280617831606138312A8193228B5
:1000600086133328861783168613831208002830D8
:1000700084008313000803194A280630F800F701AA
:10008000F70B4028F80B3F287B30F700F70B46288A
:10009000800B3D28080083168611831286150430D4
:1000A000F700F70B51285428831686118312861106
:1000B0000330A80037200800A40E2408A80016204A
:1000C0004B20A40E2408A80016204B200800A801ED
:1000D0001620C830A8003720831606118312061197
:1000E0000330A80016204B204B204B200230A800E4
:1000F00016204B202C30A4005C200C30A4005C2087
:100100000130A4005C200630A4005C208A110A1291
:100110000629A40E24080838A500A80016204B20A4
:10012000A40E2408A80016204B20080083160611F0
:1001300083120615A70E2708A80016204B20A70E2D
:100140002708A80016204B208316061183120611DB
:100150000800831603178C170C140000000083128C
:100160000C087F390319ED280313A40003170D08A9
:100170000313A50003170F080313A6002408A70004
:100180009620250803178D000313260803178F00F8
:1001900083168C170C140000000083120C0D0E0D3A
:1001A0007F390319ED280313A40003170D08031367
:1001B000A50003170F080313A6002408A700962024
:1001C000250803178D000313260803178F008D0AD7
:1001D00003198F0A0313A9280317031308008401C6
:1001E00083131F30830583161F149F141F159F113F
:1001F00007309C0083121F10F030831685000030FA
:100200008600831285010130A10067280130A40017
:100210005C20A4018920043003178D0000308F007A
:100220000313A9204030A40089200D3003178D004E
:1002300000308F000313A9200130860008308500AC
:10024000C830A800372004308500C830A800372007
:1002500002308500C830A800372001308500C83042
:10026000A800372020308600C830A8003720103082
:100270008600C830A800372008308600C830A800A3
:10028000372002308500C830A800372004308500B0
:10029000C830A800372008308500C830A8003720B3
:1002A00004308600C830A800372002308600C830ED
:0802B000A80037201C2963009F
:02400E003A3F37
:00000001FF
;PIC16F877A
;CRC=B527  CREATED="26-Eki-10 21:19"
