:1000000000308A00C12800000A108A100A118207F5
:100010002A342A342A342A342034643445344C3483
:100020004134623420342A342A342A342A342034A5
:1000300000340A108A100A118207503449344334BC
:10004000203444344534563445344C344F345034E1
:100050004D3445344E34543420340034261832287C
:10006000061233280616831606128312A6183A289B
:1000700086123B288616831686128312261942287A
:10008000061343280617831606138312A6194A2857
:1000900086134B2886178316861383120034263066
:1000A00084000008031961280630F800F701F70BF7
:1000B0005728F80B56287B30F700F70B5D28800B8C
:1000C0005428003483168611831286150430F700F5
:1000D000F70B682800000000831686118312861132
:1000E0000330A6004F200034A40E2408A6002E20C2
:1000F0006220A40E2408A6002E2062200034A6014F
:100100002E20C830A6004F20831606118312061138
:100110000330A6002E206220622062200230A6005A
:100120002E2062202C30A40074200C30A4007420F7
:100130000130A40074200630A40074208A110A1231
:10014000D728A40E24080838A500A6002E20622077
:10015000A40E2408A6002E20622000348316061167
:1001600083120615A50E2508A6002E206220A50ED6
:100170002508A6002E206220831606118312061180
:10018000003484011F30830583161F149F141F152C
:100190009F1107309C0083121F10F03083168500DA
:1001A00000308600831285010130A1007F280130D4
:1001B000A4007420A401A120A40124080420003874
:1001C0000319E628A40AA500AE20DD284030A400CB
:1001D000A120A4012408192000380319F328A40A37
:1001E000A500AE20EA280130860008308500C8301E
:1001F000A6004F2004308500C830A6004F200230F2
:100200008500C830A6004F2001308500C830A60008
:100210004F2020308600C830A6004F2010308600C6
:10022000C830A6004F2008308600C830A6004F20F6
:1002300002308500C830A6004F2004308500C83049
:10024000A6004F2008308500C830A6004F2004309B
:100250008600C830A6004F2002308600C830A600B5
:060260004F20F3286300AB
:02400E003A3F37
:00000001FF
;PIC16F877A
