:1000000000308A003B2800000A108A100A1182077B
:100010000A340D34643445344C3441346234203471
:1000200050344934433420344434653476346534B0
:100030006C346F3470346D3465346E347434203401
:1000400042346F34613472346434003421308400BB
:10005000000803193A280130F800F701F70B2E28A1
:10006000F80B2D284A30F700F70B34280000000069
:10007000800B2B28632884011F30830507309F00E5
:10008000193083169900263098009030831298001A
:1000900007309F00831605080330F700F70B4E2842
:1000A00083121F080C13A10121080420A10AF700E4
:1000B00077080C1E592899001D302102031D542871
:0A00C0006430A100262853286300D5
:02400E00393F38
:00000001FF
;PIC16F628A
