:1000000000308A00BF2800000A108A100A118207F7
:100010002A342A342A342A342034643445344C3483
:100020004134623420342A342A342A342A340034C5
:100030000A108A100A11820750344934433420349C
:1000400044344534563445344C344F3450344D34B4
:1000500045344E34543400342418302806123128E4
:100060000616831606128312A41838288612392819
:1000700086168316861283122419402806134128F7
:100080000617831606138312A419482886134928D5
:1000900086178316861383120034243084000008E8
:1000A00003195F280630F800F701F70B5528F80B05
:1000B00054287B30F700F70B5B28800B5228003464
:1000C00083168611831286150430F700F70B662815
:1000D0000000000083168611831286110330A400ED
:1000E0004D200034A20E2208A4002C206020A20E75
:1000F0002208A4002C2060200034A4012C20C83049
:10010000A4004D2083160611831206110330A400AB
:100110002C206020602060200230A4002C20602071
:100120002C30A20072200C30A20072200130A200FC
:1001300072200630A20072208A110A12CD28A20E67
:1001400022080838A300A4002C206020A20E220858
:10015000A4002C206020003483160611831206159B
:10016000A30E2308A4002C206020A30E2308A400C3
:100170002C2060208316061183120611003484019E
:100180001F30830583161F149F141F159F110730FE
:100190009C0001308312A1007D280130A200722052
:1001A000A2019F20A2012208042000380319DC28A4
:1001B000A20AA300AC20D3284030A2009F20A201B5
:1001C0002208182000380319E928A20AA300AC204D
:0601D000E028E9286300AD
:02400E00723FFF
:00000001FF
;PIC16F877A
