:10000000B2017728A7008611061106118316861102
:10001000061106110F30860583122708B2182D2805
:100020003A30A100FC305E203330A6004120103071
:10003000A10068305E20412064305D202230A6009F
:10004000412028302C200C302C2001302C20063070
:100050002C20B21427082D283214A600321C3B286D
:100060000611033C031C402840200730A100D0307B
:100070005E20031408003214FE3C03197228061592
:10008000321C321086150F3086052608F03986049A
:100090008611A60E3218412832305D200314080064
:1000A000A301A200FF30A207031CA307031C7228B0
:1000B0000330A100DF305E205228A101E83EA000FD
:1000C000A109FC30031C6728A00703186428A007B7
:1000D0006400A10F642820186D28A01C712800005E
:1000E0007128080083130313831264000800013091
:1000F000A3002C308A015120FE308A0102200130F9
:100100008A01022050308A01022049308A010220EF
:1001100043308A01022020308A01022042308A01C5
:10012000022041308A01022053308A0102204930E6
:100130008A01022043308A01022020308A010220F5
:1001400050308A01022052308A0102204F308A0149
:100150000220FE308A010220C2308A0102204C3087
:100160008A01022043308A01022044308A010220A1
:1001700020308A01022044308A01022045308A0161
:1001800002204E308A01022045308A0102204D3083
:100190008A01022045308A01022063008A01CD28AD
:02400E00753FFC
:00000001FF
