:1000000000308A00B72800000A108A100A118207FF
:100010002034643445344C34413462342034003468
:100020000A108A100A1182075034493443342034AC
:1000300044344534563445344C344F3450344D34C4
:1000400045344E3454340034261828280612292802
:100050000616831606128312A61830288612312837
:100060008616831686128312261938280613392815
:100070000617831606138312A619402886134128F3
:1000800086178316861383120034263084000008F6
:10009000031957280630F800F701F70B4D28F80B25
:1000A0004C287B30F700F70B5328800B4A2800348C
:1000B00083168611831286150430F700F70B5E282D
:1000C0000000000083168611831286110330A600FB
:1000D00045200034A20E2208A60024205820A20E9B
:1000E0002208A600242058200034A6012420C8306D
:1000F000A600452083160611831206110330A600C0
:1001000024205820582058200230A60024205820AF
:100110002C30A2006A200C30A2006A200130A2001C
:100120006A200630A2006A208A110A12C528A20E8F
:1001300022080838A300A60024205820A20E220876
:10014000A6002420582000348316061183120615B9
:10015000A50E2508A60024205820A50E2508A600D7
:1001600024205820831606118312061100348401BE
:100170001F30830583161F149F141F159F1107300E
:100180009C0001308312A10075280130A2006A2072
:10019000A20197200430A2002A30A500A420A20BBF
:1001A000CC28A30123080420A30AF700A500A4205B
:1001B00007302302031DD2280430A4002A30A500F2
:1001C000A420A40BDE284030A2009720A201220820
:1001D0001020A20AF700A500A4200F302202031D60
:0601E000E728F12863008E
:02400E00723FFF
:00000001FF
;PIC16F876A
