:1000000000308A00D32A00000A108A100A118207E1
:100010000A340D345234413432343A3420342534E5
:100020006634203456346F346C3474340A340D34EE
:1000300000340A108A100A1182070A340D3452342F
:10004000413433343A342034253466342034563441
:100050006F346C3474340A340D3400348E30F7004D
:100060002B08F8002A08F900FA01F808031D4228B5
:100070007908F800F9010830F702F808031D422852
:10008000F7014A280310F81B4928F90DF80DF7036A
:100090004228F8130000003436080319BC28BE00BB
:1000A0003A080319BC28BE0703185D287F30BE023A
:1000B000031CBC280319BC2861288130BE07031823
:1000C000BC283E08F700F801F901FA013708C20020
:1000D000C2173808C1003908C0001830BE00BF017F
:1000E000401C8A283D08FA07031C7C28F90A031DD6
:1000F0007C28F80A0319BF173C08F907031C83285A
:10010000F80A0319BF173B08B800B8173808F807F2
:100110000318BF17BF0DF80CF90CFA0CC20CC10C78
:10012000C00C0310BE0B6F280130F7070318BC2862
:10013000F81BA128C20DFA0DF90DF80DF7030319EC
:10014000BC28C21FB228FA0A031DB228F90A031DEF
:10015000B228F80A031DB228F80CF90CFA0CF70AB9
:100160000319BC283708BF003B08BF06BF1FBA28C9
:10017000F817C028F813C028F701F801F901FA01AF
:10018000000000342E0803198729BA003208031929
:100190008729BA02031CD1287F30BA0703188729A0
:1001A000D7288130BA02031C8729031987293A0806
:1001B000F700F801F901FA01B9012F08B800B817E2
:1001C0003008B7003108B6001930BA003508B60259
:1001D0000318FA280130B7020318FA28B8020318E6
:1001E000FA28B9020318FA28B90AB80AB70A350872
:1001F000B6072C293408B702031815290130B802B4
:1002000003181529B90203181529B90AB80A3408C0
:10021000B7073508B607031C2C29B70A031D2C297C
:10022000B80A031D2C29B90A2C2933088038B802D2
:1002300003182B290130B90203182B29B90A3308F6
:100240008038B8073408B707031C0929B80A031D0A
:100250000929B90A09297A14BA0B2F293A29031056
:10026000B60DB70DB80DB90D0310FA0DF90DF80D57
:10027000BB0DE6283B1C42290310F80CF90CFA0CC4
:10028000BB0C4529F70303198729BB1B6E290310F3
:10029000B60DB70DB80DB90D3508B60203185A29B9
:1002A0000130B70203185A29B80203185A29B902B3
:1002B000031C7D293408B702031865290130B802F0
:1002C00003186529B902031C7D2933088038B80258
:1002D00003186E290130B902031C7D29FA0A031D97
:1002E0007D29F90A031D7D29F80A031D7D29F70AD6
:1002F00003198729F80CF90CFA0C2F08BA003308F7
:10030000BA06BA1F8529F8178B29F8138B29F7012C
:10031000F801F901FA01000000343608B63CB600D5
:10032000FA013708BA00B7170310B70CB80CB90CAC
:10033000FA0CF90CF80CF70CB60B9429BA1FAB2980
:10034000F709F809F909FA09F70A0319F80A03196C
:10035000F90A0319FA0A8A110A12182AF701F80190
:10036000F901FA01BE01BF01C001C1013D083C0411
:100370003B043A040319EC292030C2000310B60DE7
:10038000B70DB80DB90DBE0DBF0DC00DC10D3D08A7
:100390004102031DD5293C084002031DD5293B0815
:1003A0003F02031DD5293A083E02031CE6293A08FC
:1003B000BE023B08031C3B0FBF023C08031C3C0F62
:1003C000C0023D08031C3D0FC1020314F70DF80DD8
:1003D000F90DFA0DC20BBE2900003E308400003436
:1003E0000408B0002F08B10003190F2A2E08B90025
:1003F0002D08B8002C08B7002B08B600BD01BC01C1
:100400002030BB008230BA004C207A08AE00790858
:10041000AD007808AC007708AB00B10BF6292E08C8
:10042000B9002D08B8002C08B7002B08B6008D299C
:100430007A08AE007908AD007808AC007708AB0008
:10044000AE1F2F2AB003B016AB09AC09AD09AE0937
:10045000AB0A0319AC0A0319AD0A0319AE0A3B3003
:10046000B5009A30B400CA30B300B2010A30B1000E
:100470002F080319B00A2E08B9002D08B8002C085F
:10048000B7002B08B6003508BD003408BC0033089F
:10049000BB003208BA00AE210008AB00840A000895
:1004A000AC00840A0008AD00840A0008AE00FD30EC
:1004B0008407F708031D6F2A2F0A310203196F2AD8
:1004C00030080319712A0F3931020319692A0318F8
:1004D000A52AB01BA52A301B712A2030A02A203063
:1004E000B005B01E802AB0122F08031DB003770894
:1004F000B0002D300C1E7A2A99003008F700B001A8
:100500002F083102031D8F2A7708B0002E300C1EF1
:10051000872A99003008F7002030B00500303030CD
:10052000B01EA02AB0122F08031DB0037708B00038
:100530002D300C1E992A99003008F700B001303098
:10054000F70777080C1EA22A99003508B90034086D
:10055000B8003308B7003208B600BD01BC01BB01CA
:100560000A30BA00AE217A08B5007908B4007808DC
:10057000B3007708B200B10B3B2A00342A30840064
:1005800000080319D02A0630F800F701F70BC62A35
:10059000F80BC52A7B30F700F70BCC2A800BC32A57
:1005A0008A110A12D62B84011F308305403083162E
:1005B00099002630980090308312980083161F14FB
:1005C0009F141F159F1107309C001F109F101F11B3
:1005D0009F111F1383121F179F1783169F178312D4
:1005E0001F141030F8001F08C73978049F0010301E
:1005F000F8001F08C73978049F001F151F19FE2A2D
:100600001E08FA0083161E088312AA001E08AB00FB
:100610002E207A08A5007908A4007808A30077089E
:10062000A2002508B9002408B8002308B700220852
:10063000B600BD01BC012030BB008130BA004C20A7
:100640007708AA007808AB007908AC007A08AD00FA
:10065000B1007908B0007808AF007708AE00B501A6
:10066000B401B3018930B200C2207A08A900790828
:10067000A8007808A7007708A600AA012A08042085
:10068000AA0AF70077080C1E432B990007302A02AC
:10069000031D3E2B893084002908AE002808AD00D8
:1006A0002708AC002608AB000630AF00F021093067
:1006B000AB002B080420AB0AF70077080C1E5E2B5A
:1006C000990010302B02031D592B1830F8001F0819
:1006D000C73978049F001F151F196C2B1E08FA00DC
:1006E00083161E088312AA001E08AB002E207A086B
:1006F000A5007908A4007808A3007708A2002508BF
:10070000B9002408B8002308B7002208B600BD01CC
:10071000BC012030BB008130BA004C207708AA0011
:100720007808AB007908AC007A08AD00B100790810
:10073000B0007808AF007708AE00B501B401B3018E
:100740008930B200C2207A08A9007908A800780888
:10075000A7007708A600AA012A081920AA0AF7000C
:1007600077080C1EB12B990007302A02031DAC2B11
:10077000893084002908AE002808AD002708AC00A5
:100780002608AB000630AF00F0210930AB002B0883
:100790001920AB0AF70077080C1ECC2B99001030FB
:1007A0002B02031DC72B6430AA00BE2AF72A630060
:02400E007A3FF7
:00000001FF
;PIC16F877A
