:1000000000308A00272800000A108A100A1182078F
:100010003F3406345B344F3466346D347D340734FA
:100020007F34673424308400000803192428063004
:10003000F800F701F70B1A28F80B19287B30F700A6
:10004000F70B2028800B17288A110A1260288401D8
:100050001F30830583161F149F141F159F1107302F
:100060009C00F03085000030860001308312A20031
:100070002208043C031C6628220B40280830850017
:100080002208023C031D4628043085002208033C58
:10009000031D4C28023085002208043C031D522811
:1000A00001308500A1012108093C031C64282108B6
:1000B0000420F80086000230A3009630A400122825
:1000C000A30B5D28A10A5328A20A382883163528D5
:0200D0006300CB
:02400E003A3F37
:00000001FF
;PIC16F876A
