:1000000000308A004E2800000A108A100A11820768
:100010003F3406345B344F3466346D347D340734FA
:100020007F3467346334F801F901F701FA012908D4
:10003000031D1D282808031937281030AA000310B3
:10004000A60DA70DF70DFA0D29087A02031D2A281F
:1000500028087702031C33282808F702031CFA0338
:100060002908FA020314F80DF90DAA0B1F28000045
:10007000003426308400000803194B280630F800AD
:10008000F701F70B4128F80B40287B30F700F70BFE
:100090004728800B3E288A110A12DE2884011F306F
:1000A000830583161F149F141F159F1107309C0092
:1000B000F0308500003086008312A5010130A400D5
:1000C0002508273C031CE428031D6A2824080E3C4D
:1000D000031CE4282508A3002408A2000130A10085
:1000E0002108043C031CE028210B8E2808308500E1
:1000F0002308A7002208A600A9010A30A80013209F
:100100007708A0002308A7002208A600A9010A304A
:10011000A80013207908A3007808A2002108023C57
:10012000031DAA28043085002308A7002208A60082
:10013000A9010A30A80013207708A0002308A7000F
:100140002208A600A9010A30A80013207908A300FC
:100150007808A2002108033C031DC6280230850050
:100160002308A7002208A600A9010A30A80013202E
:100170007708A0002308A7002208A600A9010A30DA
:10018000A80013207908A3007808A2002108043CE5
:10019000031DCE28013085002208A0002108033C61
:1001A000031DD72820080420803A8600DB28200879
:1001B0000420F80086000630A6003928A10A70281D
:0E01C000A40A0319A50A602883165C286300B0
:02400E003A3F37
:00000001FF
;PIC16F876A
