:1000000000308A00952C00000A108A100A1182071D
:100010005234413432343A34203425346734203475
:1000200056342034203400340A108A100A11820712
:100030005234413433343A34203425346734203454
:100040005634203420340034381828280612292841
:100050000616831606128312B81830288612312825
:100060008616831686128312381938280613392803
:100070000617831606138312B819402886134128E1
:1000800086178316861383120034383084000008E4
:10009000031957280630F800F701F70B4D28F80B25
:1000A0004C287B30F700F70B5328800B4A2800348C
:1000B00083168611831286150430F700F70B5E282D
:1000C0000000000083168611831286110330B800E9
:1000D00045200034AB0E2B08B80024205820AB0E6E
:1000E0002B08B800242058200034B8012420C83040
:1000F000B800452083160611831206110330B8009C
:1001000024205820582058200230B800242058209D
:100110002C30AB006A200C30AB006A200130AB0001
:100120006A200630AB006A208A110A12AC2C8E308D
:10013000F7002C08F8002B08F900FA01F808031D55
:10014000AB287908F800F9010830F702F808031D18
:10015000AB28F701B3280310F81BB228F90DF80DEE
:10016000F703AB28F81300000034370803192529DA
:10017000BF003B0803192529BF070318C6287F3095
:10018000BF02031C252903192529CA288130BF076E
:10019000031825293F08F700F801F901FA0138088A
:1001A000C300C3173908C2003A08C1001830BF00A5
:1001B000C001411CF3283E08FA07031CE528F90A90
:1001C000031DE528F80A0319C0173D08F907031CA9
:1001D000EC28F80A0319C0173C08B900B917390808
:1001E000F8070318C017C00DF80CF90CFA0CC30C73
:1001F000C20CC10C0310BF0BD8280130F70703183D
:100200002529F81B0A29C30DFA0DF90DF80DF7037E
:1002100003192529C31F1B29FA0A031D1B29F90AE3
:10022000031D1B29F80A031D1B29F80CF90CFA0CF5
:10023000F70A031925293808C0003C08C006C01F6A
:100240002329F8172929F8132929F701F801F901B9
:10025000FA01000000342F080319F029BB0033080D
:100260000319F029BB02031C3A297F30BB0703188E
:10027000F02940298130BB02031CF0290319F02921
:100280003B08F700F801F901FA01BA013008B9009A
:10029000B9173108B8003208B7001930BB0036086A
:1002A000B702031863290130B80203186329B902A1
:1002B00003186329BA0203186329BA0AB90AB80AEB
:1002C0003608B70795293508B80203187E2901308A
:1002D000B90203187E29BA0203187E29BA0AB90A9C
:1002E0003508B8073608B707031C9529B80A031D57
:1002F0009529B90A031D9529BA0A95293408803829
:10030000B902031894290130BA0203189429BA0AD1
:1003100034088038B9073508B807031C7229B90AB0
:10032000031D7229BA0A72297A14BB0B9829A329D2
:100330000310B70DB80DB90DBA0D0310FA0DF90D74
:10034000F80DBC0D4F293C1CAB290310F80CF90C1F
:10035000FA0CBC0CAE29F7030319F029BC1BD729F2
:100360000310B70DB80DB90DBA0D3608B702031852
:10037000C3290130B8020318C329B9020318C329DD
:10038000BA02031CE6293508B8020318CE29013049
:10039000B9020318CE29BA02031CE62934088038B2
:1003A000B9020318D7290130BA02031CE629FA0A58
:1003B000031DE629F90A031DE629F80A031DE629AB
:1003C000F70A0319F029F80CF90CFA0C3008BB00F5
:1003D0003408BB06BB1FEE29F817F429F813F429DB
:1003E000F701F801F901FA0100000034AB0E2B0807
:1003F0000838AC00B80024205820AB0E2B08B800F9
:100400002420582000348316061183120615B70ED7
:100410003708B80024205820B70E3708B800242029
:100420005820831606118312061100348030831879
:10043000BC06C101C2013808C0003C08C00637082C
:100440000319032BBF00F7003B0803190C2BBF0255
:100450000319A92A031C682A3C08C500C5173D08D2
:10046000C4003E08C300C2010310C50CC40CC30C79
:10047000C20CBF0B332AC01F402A4114202B41104D
:100480003F1041163A308400352B4112C01B522ACE
:100490003F1C5D2AC50CC40CC30CC20CF70A03191F
:1004A0001B2B5D2AC51B602A0310C20DC30DC40D92
:1004B000C50DF70303191B2B522A4117C82A4113F4
:1004C0003808C000B81F662AC517142BC513142B93
:1004D0003B08BF00F7003708BF023808C500C51742
:1004E0003908C4003A08C300C2010310C50CC40C8B
:1004F000C30CC20CBF0B742AC01F812AC114202B4D
:10050000C1103F10C1163E308400352BC112C01BF4
:10051000932A3F1C9E2AC50CC40CC30CC20CF70ABC
:1005200003191B2B9E2AC51BA12A0310C20DC30D44
:10053000C40DC50DF70303191B2B932AC117C82A35
:10054000C1133C08C000BC1FA72AC517142BC51334
:10055000142B3C08C500C5173D08C4003E08C30065
:10056000C01FB62AC5134115202B4111C2013F10EF
:100570003A308400352BC01BDE2A3808C0003F1CEF
:10058000C82AC50CC40CC30CC20CF70A03191B2BD8
:10059000C21FD92AC30A031DD92AC40A031DD92A96
:1005A000C50A031DD92AC50CC40CC30CF70A0319CC
:1005B0001B2B411B5F2AC11BA02AFD2A8030C506C8
:1005C000C51FE62A202B3C08C000F32A3808C000CB
:1005D000C508031DF32AC408031DF32AC308031D1D
:1005E000F32AF701142BC51BFD2A0310C20DC30DFE
:1005F000C40DC50DF70BF32A1B2BC01F012BC5170C
:10060000142BC513142B3B08F7003C08C5003D080C
:10061000C4003E08C300142B3708F7003808C50093
:100620003908C4003A08C3004508F8004408F90036
:100630004308FA00532BF701F801F901FA01532B93
:10064000C201C309C409C509C209C20A031D2E2B70
:10065000C30A031D2E2BC40A0319C50A41183F2AD9
:10066000C118802A4119B52AE32A0008C307031CD0
:100670003F2BC40A031D3F2BC50A03193F148403F3
:100680000008C407031C472BC50A03193F14840341
:100690000008801F803AC50703183F14411A452AF5
:1006A000C11A862ABB2A00008A110A12F22B3708C7
:1006B000B63CB700FA013808BB00B8170310B80CF5
:1006C000B90CBA0CFA0CF90CF80CF70CB70B5E2B42
:1006D000BB1F752BF709F809F909FA09F70A03197D
:1006E000F80A0319F90A0319FA0A8A110A12032CE3
:1006F000F701F801F901FA01BF01C001C101C2010E
:100700003E083D043C043B040319B62B2030C300D3
:100710000310B70DB80DB90DBA0DBF0DC00DC10D49
:10072000C20D3E084202031D9F2B3D084102031DDE
:100730009F2B3C084002031D9F2B3B083F02031CDC
:10074000B02B3B08BF023C08031C3C0FC0023D0815
:10075000031C3D0FC1023E08031C3E0FC2020314DE
:10076000F70DF80DF90DFA0DC30B882B00003F3083
:10077000840000340408B1003008B2000319D92BFA
:100780002F08BA002E08B9002D08B8002C08B700B1
:10079000BE01BD012030BC008230BB00B5207A080C
:1007A000AF007908AE007808AD007708AC00B20B56
:1007B000C02B7E30F700F801AD1BF817F901FA01E4
:1007C00083102F08BA002E08B9002D08B8002C0895
:1007D000B7007A08BE007908BD007808BC00770829
:1007E000BB00162A7A08AF007908AE007808AD0081
:1007F0007708AC002F08BA002E08B9002D08B80001
:100800002C08B700572B7A08AF007908AE0078089B
:10081000AD007708AC00AF1F1A2CB103B116AC09BC
:10082000AD09AE09AF09AC0A0319AD0A0319AE0A46
:100830000319AF0A3B30B6009A30B500CA30B40095
:10084000B3010A30B20030080319B10A2F08BA0008
:100850002E08B9002D08B8002C08B7003608BE00D5
:100860003508BD003408BC003308BB0078230008FD
:10087000AC00840A0008AD00840A0008AE00840AB7
:100880000008AF00FD308407F708031D582C300A1C
:1008900032020319582C310803195A2C0F3932022D
:1008A0000319542C03187C2C311B5A2C2030782C23
:1008B0002030B10530083202031D682C7708B100E2
:1008C0002E30B70003223108F7002030B105003088
:1008D0003030B11E782CB1123008031DB1037708F7
:1008E000B1002D30B70003223108F700B1013030DC
:1008F000F7077708B70003223608BA003508B900B1
:100900003408B8003308B700BE01BD01BC010A308D
:10091000BB0078237A08B6007908B5007808B400DF
:100920007708B300B20B262C003484011F308305F6
:1009300083161F149F141F159F1107309C001F1052
:100940009F101F119F111F1383121F179F178316CC
:100950009F1783121F1475280130AB006A201030D6
:10096000F8001F08C73978049F001F151F19B62CFF
:100970001E08FA0083161E088312AB001E08AC0086
:1009800097207A08A5007908A4007808A3007708C2
:10099000A2002508BA002408B9002308B8002208DC
:1009A000B700BE01BD012030BC008130BB00B520C6
:1009B0007708AB007808AC007908AD007A08AE0083
:1009C000B2007908B1007808B0007708AF00B6012E
:1009D000B501B4018930B3002B217A08A900790848
:1009E000A8007808A7007708A600AB01F621AB01A4
:1009F0002B080420AB0AF700B700032205302B02B6
:100A0000031DF82C863084002908AF002808AE00AA
:100A10002708AD002608AC000630B000BA23073026
:100A2000AC002C080420AC0AF700B70003220B30FE
:100A30002C02031D112D1830F8001F08C739780447
:100A40009F001F151F19222D1E08FA0083161E086D
:100A50008312AB001E08AC0097207A08A500790825
:100A6000A4007808A3007708A2002508BA0024088B
:100A7000B9002308B8002208B700BE01BD0120302C
:100A8000BC008130BB00B5207708AB007808AC0013
:100A90007908AD007A08AE00B2007908B100780894
:100AA000B0007708AF00B601B501B4018930B300DA
:100AB0002B217A08A9007908A8007808A7007708F0
:100AC000A6004030AB00F621AB012B081420AB0A86
:100AD000F700B700032205302B02031D652D863079
:100AE00084002908AF002808AE002708AD002608BA
:100AF000AC000630B000BA230730AC002C0814203C
:100B0000AC0AF700B70003220B302C02031D7E2D28
:0A0B10006430B8004520AF2C6300EC
:02400E007A3FF7
:00000001FF
;PIC16F877A
