:1000000000308A008A2800002508F801240203181D
:100010000C282408F7001828F7010830A600A40DC2
:10002000F70D250877020318F700F80DA60B0F2827
:10003000003420132008831687008312071308302A
:10004000F800000000000000F8173528F813A40C91
:1000500003180717031C0713781735287813F80BB4
:100060002728000000000000071750308400840B90
:100070003728F81B2628781B2E28003478082208F9
:10008000A4006430A50004207708A200780830306E
:10009000031D5128A31C5828A3195828231A2030BF
:1000A0005428A31123122314F8077808A400192058
:1000B0002208A4000A30A50004207708A2007808CE
:1000C0003030031D6928A3196D28231C6D28231ABD
:1000D0002030F8077808A40019203030A207220841
:1000E000A40019208A110A12CA28233084000008AB
:1000F000031987280630F800F701F70B7D28F80B65
:100100007C287B30F700F70B8328800B7A288A1134
:100110000A12D02884011F30830583161F149F14F0
:100120001F159F1107309C0083122013200883168F
:10013000870083120717FF30A00083168113FF305A
:10014000831286000618A6280130A1008618AA2866
:100150000230A1000619AE280330A1008619B2288A
:100160000430A100061AB6280530A100861ABA2864
:100170000630A100061BBE280730A100861BC2283E
:100180000830A100A1080319CA282108A2001B30C9
:10019000A3003E28A1010230A200C830A3007528A8
:0801A000A20BCD28A228630088
:02400E007A3FF7
:00000001FF
;PIC16F876A
