:1000000000308A00102900000A108A100A118207A5
:10001000203450346F3472347434443420345434C3
:100020007534733461342034423461347334203491
:1000300000340A108A100A1182075434753473345C
:100040003A342034523444342534553400340A10C0
:100050008A100A1182075434753473343A342034C8
:10006000003427183528061236280616831606127D
:100070008312A7183D2886123E28861683168612FC
:1000800083122719452806134628061783160613D8
:100090008312A7194D2886134E28861783168613B8
:1000A00083120034273084000008031964280630C6
:1000B000F800F701F70B5A28F80B59287B30F700A6
:1000C000F70B6028800B57280034831686118312A3
:1000D00086150430F700F70B6B280000000083162C
:1000E0008611831286110330A70052200034A20E1D
:1000F0002208A70031206520A20E2208A700312087
:1001000065200034A7013120C830A7005220831693
:100110000611831206110330A700312065206520E7
:1001200065200230A700312065202C30A200772006
:100130000C30A20077200130A20077200630A20008
:1001400077208A110A121E29A20E22080838A3005D
:10015000A70031206520A20E2208A70031206520CB
:1001600000348316061183120615A60E2608A70072
:1001700031206520A60E2608A700312065208316B1
:1001800006118312061100342708F801260203180D
:10019000CC282608F700D828F7010830A800A60DBB
:1001A000F70D270877020318F700F80DA80BCF28E2
:1001B000003478082408A6006430A700C42077081B
:1001C000A40078083030031DEC28A51CF328A519DD
:1001D000F328251A2030EF28A51125122514F80739
:1001E0007808A600B1202408A6000A30A700C42081
:1001F0007708A40078083030031D0429A5190829C0
:10020000251C0829251A2030F8077808A600B120F7
:100210003030A4072408A600B1208A110A126729E9
:1002200084011F30830583161F149F141F159F110F
:1002300007309C00FF308800831282280130A20022
:100240007720A201A420A20122080420A20AF7001C
:10025000A600B12010302202031D2429081C3229D7
:100260000130A100881C36290230A100081D3A295E
:100270000330A100881D3E290430A100081E422938
:100280000530A100881E46290630A100081F4A2912
:100290000730A100881F4E290830A100A1080319CA
:1002A0006F294030A200A42001302102A200A30146
:1002B00023081920A30AF700A600B1200730230263
:1002C000031D58292208A4001B30A500D92803309B
:1002D000A4002030A600B120A40B69298B2940304E
:1002E000A200A420A20122082720A20AF700A6004B
:1002F000B12005302202031D73290330A3002D30E5
:10030000A600B120A30B7F290330A4002030A60053
:10031000B120A40B8629A101860188016430A700C1
:0603200052202E296300AB
:02400E00723FFF
:00000001FF
;PIC16F877A
