:1000000000308A0004280000FF238316900000308F
:100010008A0063280A108A100A1182076434453462
:100020004C34413462342034503449344334203425
:1000300044346534763465346C346F3470346D34E4
:1000400065346E347434203442346F346134723425
:100050006434003483160511831205110830A100A1
:10006000000000000000A1174428A113A40C0318ED
:100070000515031C0511211744282113A10B36284F
:10008000000000000000051584308400840B462821
:100090000000A11B3528211B3D2891282330840016
:1000A0000008031962280130A100A001A00B562806
:1000B000A10B55284A30A000A00B5C2800000000CE
:1000C000800B5328982884011F3083051F13831643
:1000D0001F109F101F119F11073083129900831664
:1000E0000511831205151F1383161F109F101F1172
:1000F0009F1183121F1007309900831605080330E3
:100100008312A000A00B822819088C113B308316A3
:1001100085008312A30123080A20A30AA000A400DB
:100120002A281B302302031D8B28C830A3004E2829
:060130008316892863001C
:0207FE00803445
:02400E00B531CA
:00000001FF
;PIC12F675
